:100000000C9446000C9465000C9465000C946500FB
:100010000C9465000C9465000C9465000C946500CC
:100020000C9465000C9465000C9465000C946500BC
:100030000C9465000C94D9010C9465000C94650037
:100040000C9465000C9465000C9465000C9465009C
:100050000C9465000C9465000C9465000C9465008C
:100060000C9465000C9465000C9465000C9465007C
:100070000C9465000C9465000C9465000C9465006C
:100080000C9465000C9465000C94650011241FBE4F
:10009000CFEFD0E4DEBFCDBF11E0A0E0B1E0E0E5FE
:1000A000F7E000E00BBF02C007900D92AC31B10742
:1000B000D9F721E0ACE1B1E001C01D92A432B20752
:1000C000E1F70E9459030C94A6030C940000CF930F
:1000D000DF93CDB7DEB781E00E948E000000DF9194
:1000E000CF910895CF93DF93CDB7DEB784E690E04C
:1000F0000E94320188E30E948E0086E00E948E00FA
:100100008FE00E948E0081E00E948E008AE090E0E5
:100110000E9432010000DF91CF910895CF93DF93C9
:100120001F92CDB7DEB789838BE290E02BE230E0FF
:10013000F90120812F7BFC01208388E290E0298156
:10014000FC0120838BE290E02BE230E0F90120817A
:100150002068FC01208300008BE290E02BE230E07D
:10016000F90120812F77FC01208382E090E00E943A
:10017000320100000F90DF91CF910895CF93DF936C
:100180001F92CDB7DEB789838BE290E02BE230E09F
:10019000F90120812064FC01208388E290E029811C
:1001A000FC0120838BE290E02BE230E0F90120811A
:1001B0002068FC01208300008BE290E02BE230E01D
:1001C000F90120812F77FC01208381E090E00E94DB
:1001D000320100000F90DF91CF910895CF93DF930C
:1001E00000D000D0CDB7DEB78A837C836B830E94BA
:1001F00067008A81898311C0898191E0980F998372
:100200000E941B018B819C819C012F5F3F4F3C838F
:100210002B83FC0180810E94BE008B819C81FC01AC
:100220008081882349F700000F900F900F900F9066
:10023000DF91CF910895CF93DF931F92CDB7DEB7B3
:1002400089838981813128F4898181580E948E00B7
:1002500004C0898181550E948E0000000F90DF91BB
:10026000CF910895CF93DF9300D000D000D0CDB7C9
:10027000DEB79E838D831A82198213C01C821B8273
:1002800006C000008B819C8101969C838B838B81AF
:100290009C8187309340ACF389819A8101969A833F
:1002A000898329813A818D819E812817390734F30A
:1002B000000026960FB6F894DEBF0FBECDBFDF91CB
:1002C000CF910895CF93DF9300D01F92CDB7DEB7C3
:1002D00089837B836A8389818A3031F48A819B8117
:1002E000BC018DE00E94620180EC90E0FC01808105
:1002F000882F90E080729927892BB1F386EC90E0EB
:100300002981FC01208380E090E00F900F900F90F6
:10031000DF91CF910895CF93DF93CDB7DEB781E81A
:1003200090E02BE0FC01208388E890E02DE730E0AE
:10033000FC01318320838FE690E022E0FC012083E2
:1003400084E890E0FC011182108280910F0190916D
:100350001001A0911101B091120180931E019093A0
:100360001F01A0932001B09321018FE590E02FE5BC
:1003700030E0F90120812068FC0120830000DF913A
:10038000CF910895CF93DF93CDB7DEB781E890E0AA
:10039000FC0110820000DF91CF910895CF93DF938D
:1003A000CDB7DEB781E080931D010000DF91CF91D2
:1003B00008951F920F9200905F000F9211240090F9
:1003C0005B000F922F933F934F935F936F937F93B5
:1003D0008F939F93AF93BF93EF93FF93CF93DF934D
:1003E000CDB7DEB780911E0190911F01A091200131
:1003F000B09121010197A109B10980931E01909349
:100400001F01A0932001B093210180911E019091C2
:100410001F01A0912001B0912101892B8A2B8B2BE8
:1004200091F40E94CE0180910F0190911001A09152
:100430001101B091120180931E0190931F01A093AE
:100440002001B09321010000DF91CF91FF91EF9146
:10045000BF91AF919F918F917F916F915F914F91DC
:100460003F912F910F9000925B000F9000925F00E0
:100470000F901F901895CF93DF9300D000D0CDB789
:10048000DEB769837A838B839C8389819A81AB8170
:10049000BC8180930F0190931001A0931101B09340
:1004A000120180910F0190911001A0911101B09162
:1004B000120180931E0190931F01A0932001B0931D
:1004C000210100000F900F900F900F90DF91CF91BE
:1004D0000895CF93DF93CDB7DEB78091220190913D
:1004E000230182309105D9F18330910528F40097DA
:1004F00079F00197B9F0A0C08430910509F474C077
:100500008430910508F453C0059709F481C094C064
:1005100081E090E0909323018093220185E0809315
:100520000E018FC080E290E0FC0180818E3F81F45B
:1005300080910E01882329F080910E0181508093D3
:100540000E0184E090E0909323018093220179C012
:1005500082E090E0909323018093220172C080E2B8
:1005600090E0FC0180818E3F81F480910E01893002
:1005700028F480910E018F5F80930E0184E090E05B
:1005800090932301809322015CC080911C018823F9
:1005900039F081E090E0909323018093220151C0D3
:1005A00083E090E090932301809322014AC080E28F
:1005B00090E0FC0180818E3F81F480910E018823C0
:1005C00029F080910E01815080930E0184E090E02B
:1005D000909323018093220134C082E090E09093B5
:1005E0002301809322012DC080E290E0FC018081F4
:1005F0008E3F39F484E090E09093230180932201B0
:1006000020C085E090E0909323018093220119C0DF
:1006100080E290E0FC0180818E3F39F481E090E03F
:1006200090932301809322010CC085E090E0909389
:1006300023018093220105C0109223011092220110
:100640000000809122019091230182309105C9F030
:100650008330910528F4009719F1019751F025C0D6
:1006600084309105F9F08430910588F00597E1F028
:100670001CC010921C0185E290E021E0FC01208367
:1006800014C085E290E022E0FC0120830EC081E0EE
:1006900080931C0185E290E024E0FC01208305C0EA
:1006A000000003C0000001C000000000DF91CF91F6
:1006B0000895CF93DF93CDB7DEB781E290E0FC01E0
:1006C000108282E290E02FEFFC01208384E290E030
:1006D0002FEFFC01208385E290E0FC01108287E28D
:1006E00090E02FEFFC01208388E290E0FC01108273
:1006F0008AE290E02FEFFC0120838BE290E0FC0186
:1007000010826CE271E080E090E00E943B020E9467
:100710008B010E9472000E94690281E00E941B010D
:1007200080910E01805D0E94BE0080910E01893093
:1007300029F463E171E083E00E94EE000000809103
:100740001D018823E1F310921D01E5CFF894FFCF3E
:10075000000000020000000062010000000005012E
:0C076000000000566963746F727921007C
:00000001FF
